{
  "abi": [
    {
      "inputs": [],
      "stateMutability": "nonpayable",
      "type": "constructor"
    },
    {
      "anonymous": false,
      "inputs": [
        {
          "indexed": true,
          "internalType": "address",
          "name": "owner",
          "type": "address"
        },
        {
          "indexed": true,
          "internalType": "address",
          "name": "approved",
          "type": "address"
        },
        {
          "indexed": true,
          "internalType": "uint256",
          "name": "tokenId",
          "type": "uint256"
        }
      ],
      "name": "Approval",
      "type": "event"
    },
    {
      "anonymous": false,
      "inputs": [
        {
          "indexed": true,
          "internalType": "address",
          "name": "owner",
          "type": "address"
        },
        {
          "indexed": true,
          "internalType": "address",
          "name": "operator",
          "type": "address"
        },
        {
          "indexed": false,
          "internalType": "bool",
          "name": "approved",
          "type": "bool"
        }
      ],
      "name": "ApprovalForAll",
      "type": "event"
    },
    {
      "anonymous": false,
      "inputs": [
        {
          "indexed": true,
          "internalType": "address",
          "name": "delegator",
          "type": "address"
        },
        {
          "indexed": true,
          "internalType": "address",
          "name": "fromDelegate",
          "type": "address"
        },
        {
          "indexed": true,
          "internalType": "address",
          "name": "toDelegate",
          "type": "address"
        }
      ],
      "name": "DelegateChanged",
      "type": "event"
    },
    {
      "anonymous": false,
      "inputs": [
        {
          "indexed": true,
          "internalType": "address",
          "name": "delegate",
          "type": "address"
        },
        {
          "indexed": false,
          "internalType": "uint256",
          "name": "previousBalance",
          "type": "uint256"
        },
        {
          "indexed": false,
          "internalType": "uint256",
          "name": "newBalance",
          "type": "uint256"
        }
      ],
      "name": "DelegateVotesChanged",
      "type": "event"
    },
    {
      "anonymous": false,
      "inputs": [
        {
          "indexed": true,
          "internalType": "address",
          "name": "previousOwner",
          "type": "address"
        },
        {
          "indexed": true,
          "internalType": "address",
          "name": "newOwner",
          "type": "address"
        }
      ],
      "name": "OwnershipTransferred",
      "type": "event"
    },
    {
      "anonymous": false,
      "inputs": [
        {
          "indexed": false,
          "internalType": "address",
          "name": "account",
          "type": "address"
        }
      ],
      "name": "Paused",
      "type": "event"
    },
    {
      "anonymous": false,
      "inputs": [
        {
          "indexed": true,
          "internalType": "address",
          "name": "from",
          "type": "address"
        },
        {
          "indexed": true,
          "internalType": "address",
          "name": "to",
          "type": "address"
        },
        {
          "indexed": true,
          "internalType": "uint256",
          "name": "tokenId",
          "type": "uint256"
        }
      ],
      "name": "Transfer",
      "type": "event"
    },
    {
      "anonymous": false,
      "inputs": [
        {
          "indexed": false,
          "internalType": "address",
          "name": "account",
          "type": "address"
        }
      ],
      "name": "Unpaused",
      "type": "event"
    },
    {
      "inputs": [],
      "name": "DOMAIN_SEPARATOR",
      "outputs": [
        {
          "internalType": "bytes32",
          "name": "",
          "type": "bytes32"
        }
      ],
      "stateMutability": "view",
      "type": "function"
    },
    {
      "inputs": [
        {
          "internalType": "address",
          "name": "to",
          "type": "address"
        },
        {
          "internalType": "uint256",
          "name": "tokenId",
          "type": "uint256"
        }
      ],
      "name": "approve",
      "outputs": [],
      "stateMutability": "nonpayable",
      "type": "function"
    },
    {
      "inputs": [
        {
          "internalType": "address",
          "name": "owner",
          "type": "address"
        }
      ],
      "name": "balanceOf",
      "outputs": [
        {
          "internalType": "uint256",
          "name": "",
          "type": "uint256"
        }
      ],
      "stateMutability": "view",
      "type": "function"
    },
    {
      "inputs": [
        {
          "internalType": "uint256",
          "name": "tokenId",
          "type": "uint256"
        }
      ],
      "name": "burn",
      "outputs": [],
      "stateMutability": "nonpayable",
      "type": "function"
    },
    {
      "inputs": [
        {
          "internalType": "address",
          "name": "delegatee",
          "type": "address"
        }
      ],
      "name": "delegate",
      "outputs": [],
      "stateMutability": "nonpayable",
      "type": "function"
    },
    {
      "inputs": [
        {
          "internalType": "address",
          "name": "delegatee",
          "type": "address"
        },
        {
          "internalType": "uint256",
          "name": "nonce",
          "type": "uint256"
        },
        {
          "internalType": "uint256",
          "name": "expiry",
          "type": "uint256"
        },
        {
          "internalType": "uint8",
          "name": "v",
          "type": "uint8"
        },
        {
          "internalType": "bytes32",
          "name": "r",
          "type": "bytes32"
        },
        {
          "internalType": "bytes32",
          "name": "s",
          "type": "bytes32"
        }
      ],
      "name": "delegateBySig",
      "outputs": [],
      "stateMutability": "nonpayable",
      "type": "function"
    },
    {
      "inputs": [
        {
          "internalType": "address",
          "name": "account",
          "type": "address"
        }
      ],
      "name": "delegates",
      "outputs": [
        {
          "internalType": "address",
          "name": "",
          "type": "address"
        }
      ],
      "stateMutability": "view",
      "type": "function"
    },
    {
      "inputs": [
        {
          "internalType": "uint256",
          "name": "tokenId",
          "type": "uint256"
        }
      ],
      "name": "getApproved",
      "outputs": [
        {
          "internalType": "address",
          "name": "",
          "type": "address"
        }
      ],
      "stateMutability": "view",
      "type": "function"
    },
    {
      "inputs": [
        {
          "internalType": "uint256",
          "name": "blockNumber",
          "type": "uint256"
        }
      ],
      "name": "getPastTotalSupply",
      "outputs": [
        {
          "internalType": "uint256",
          "name": "",
          "type": "uint256"
        }
      ],
      "stateMutability": "view",
      "type": "function"
    },
    {
      "inputs": [
        {
          "internalType": "address",
          "name": "account",
          "type": "address"
        },
        {
          "internalType": "uint256",
          "name": "blockNumber",
          "type": "uint256"
        }
      ],
      "name": "getPastVotes",
      "outputs": [
        {
          "internalType": "uint256",
          "name": "",
          "type": "uint256"
        }
      ],
      "stateMutability": "view",
      "type": "function"
    },
    {
      "inputs": [
        {
          "internalType": "address",
          "name": "account",
          "type": "address"
        }
      ],
      "name": "getVotes",
      "outputs": [
        {
          "internalType": "uint256",
          "name": "",
          "type": "uint256"
        }
      ],
      "stateMutability": "view",
      "type": "function"
    },
    {
      "inputs": [
        {
          "internalType": "address",
          "name": "owner",
          "type": "address"
        },
        {
          "internalType": "address",
          "name": "operator",
          "type": "address"
        }
      ],
      "name": "isApprovedForAll",
      "outputs": [
        {
          "internalType": "bool",
          "name": "",
          "type": "bool"
        }
      ],
      "stateMutability": "view",
      "type": "function"
    },
    {
      "inputs": [],
      "name": "name",
      "outputs": [
        {
          "internalType": "string",
          "name": "",
          "type": "string"
        }
      ],
      "stateMutability": "view",
      "type": "function"
    },
    {
      "inputs": [
        {
          "internalType": "address",
          "name": "owner",
          "type": "address"
        }
      ],
      "name": "nonces",
      "outputs": [
        {
          "internalType": "uint256",
          "name": "",
          "type": "uint256"
        }
      ],
      "stateMutability": "view",
      "type": "function"
    },
    {
      "inputs": [],
      "name": "owner",
      "outputs": [
        {
          "internalType": "address",
          "name": "",
          "type": "address"
        }
      ],
      "stateMutability": "view",
      "type": "function"
    },
    {
      "inputs": [
        {
          "internalType": "uint256",
          "name": "tokenId",
          "type": "uint256"
        }
      ],
      "name": "ownerOf",
      "outputs": [
        {
          "internalType": "address",
          "name": "",
          "type": "address"
        }
      ],
      "stateMutability": "view",
      "type": "function"
    },
    {
      "inputs": [],
      "name": "pause",
      "outputs": [],
      "stateMutability": "nonpayable",
      "type": "function"
    },
    {
      "inputs": [],
      "name": "paused",
      "outputs": [
        {
          "internalType": "bool",
          "name": "",
          "type": "bool"
        }
      ],
      "stateMutability": "view",
      "type": "function"
    },
    {
      "inputs": [],
      "name": "renounceOwnership",
      "outputs": [],
      "stateMutability": "nonpayable",
      "type": "function"
    },
    {
      "inputs": [
        {
          "internalType": "address",
          "name": "to",
          "type": "address"
        },
        {
          "internalType": "string",
          "name": "uri",
          "type": "string"
        }
      ],
      "name": "safeMint",
      "outputs": [],
      "stateMutability": "nonpayable",
      "type": "function"
    },
    {
      "inputs": [
        {
          "internalType": "address",
          "name": "from",
          "type": "address"
        },
        {
          "internalType": "address",
          "name": "to",
          "type": "address"
        },
        {
          "internalType": "uint256",
          "name": "tokenId",
          "type": "uint256"
        }
      ],
      "name": "safeTransferFrom",
      "outputs": [],
      "stateMutability": "nonpayable",
      "type": "function"
    },
    {
      "inputs": [
        {
          "internalType": "address",
          "name": "from",
          "type": "address"
        },
        {
          "internalType": "address",
          "name": "to",
          "type": "address"
        },
        {
          "internalType": "uint256",
          "name": "tokenId",
          "type": "uint256"
        },
        {
          "internalType": "bytes",
          "name": "_data",
          "type": "bytes"
        }
      ],
      "name": "safeTransferFrom",
      "outputs": [],
      "stateMutability": "nonpayable",
      "type": "function"
    },
    {
      "inputs": [
        {
          "internalType": "address",
          "name": "operator",
          "type": "address"
        },
        {
          "internalType": "bool",
          "name": "approved",
          "type": "bool"
        }
      ],
      "name": "setApprovalForAll",
      "outputs": [],
      "stateMutability": "nonpayable",
      "type": "function"
    },
    {
      "inputs": [
        {
          "internalType": "bytes4",
          "name": "interfaceId",
          "type": "bytes4"
        }
      ],
      "name": "supportsInterface",
      "outputs": [
        {
          "internalType": "bool",
          "name": "",
          "type": "bool"
        }
      ],
      "stateMutability": "view",
      "type": "function"
    },
    {
      "inputs": [],
      "name": "symbol",
      "outputs": [
        {
          "internalType": "string",
          "name": "",
          "type": "string"
        }
      ],
      "stateMutability": "view",
      "type": "function"
    },
    {
      "inputs": [
        {
          "internalType": "uint256",
          "name": "index",
          "type": "uint256"
        }
      ],
      "name": "tokenByIndex",
      "outputs": [
        {
          "internalType": "uint256",
          "name": "",
          "type": "uint256"
        }
      ],
      "stateMutability": "view",
      "type": "function"
    },
    {
      "inputs": [
        {
          "internalType": "address",
          "name": "owner",
          "type": "address"
        },
        {
          "internalType": "uint256",
          "name": "index",
          "type": "uint256"
        }
      ],
      "name": "tokenOfOwnerByIndex",
      "outputs": [
        {
          "internalType": "uint256",
          "name": "",
          "type": "uint256"
        }
      ],
      "stateMutability": "view",
      "type": "function"
    },
    {
      "inputs": [
        {
          "internalType": "uint256",
          "name": "tokenId",
          "type": "uint256"
        }
      ],
      "name": "tokenURI",
      "outputs": [
        {
          "internalType": "string",
          "name": "",
          "type": "string"
        }
      ],
      "stateMutability": "view",
      "type": "function"
    },
    {
      "inputs": [],
      "name": "totalSupply",
      "outputs": [
        {
          "internalType": "uint256",
          "name": "",
          "type": "uint256"
        }
      ],
      "stateMutability": "view",
      "type": "function"
    },
    {
      "inputs": [
        {
          "internalType": "address",
          "name": "from",
          "type": "address"
        },
        {
          "internalType": "address",
          "name": "to",
          "type": "address"
        },
        {
          "internalType": "uint256",
          "name": "tokenId",
          "type": "uint256"
        }
      ],
      "name": "transferFrom",
      "outputs": [],
      "stateMutability": "nonpayable",
      "type": "function"
    },
    {
      "inputs": [
        {
          "internalType": "address",
          "name": "newOwner",
          "type": "address"
        }
      ],
      "name": "transferOwnership",
      "outputs": [],
      "stateMutability": "nonpayable",
      "type": "function"
    },
    {
      "inputs": [],
      "name": "unpause",
      "outputs": [],
      "stateMutability": "nonpayable",
      "type": "function"
    }
  ],
  "bytecode": {
    "object": "0x6101406040523480156200001257600080fd5b506040518060400160405280600781526020016626bcaa37b5b2b760c91b815250604051806040016040528060018152602001603160f81b8152506040518060400160405280600781526020016626bcaa37b5b2b760c91b815250604051806040016040528060038152602001624d544b60e81b8152508160009080519060200190620000a1929190620001be565b508051620000b7906001906020840190620001be565b5050600b805460ff1916905550620000cf3362000164565b815160209283012081519183019190912060e08290526101008190524660a0818152604080517f8b73c3c69bb8fe3d512ecc4cf759cc79239f7b179b0ffacaa9a75d522b39400f818801819052818301969096526060810194909452608080850193909352308483018190528151808603909301835260c09485019091528151919095012090529190915261012052620002a0565b600b80546001600160a01b03838116610100818102610100600160a81b031985161790945560405193909204169182907f8be0079c531659141344cd1fd0a4f28419497f9722a3daafe3b4186f6b6457e090600090a35050565b828054620001cc9062000264565b90600052602060002090601f016020900481019282620001f057600085556200023b565b82601f106200020b57805160ff19168380011785556200023b565b828001600101855582156200023b579182015b828111156200023b5782518255916020019190600101906200021e565b50620002499291506200024d565b5090565b5b808211156200024957600081556001016200024e565b600181811c908216806200027957607f821691505b6020821081036200029a57634e487b7160e01b600052602260045260246000fd5b50919050565b60805160a05160c05160e0516101005161012051612f0b620002f060003960006111a3015260006111f2015260006111cd01526000611126015260006111500152600061117a0152612f0b6000f3fe608060405234801561001057600080fd5b50600436106101f05760003560e01c80636352211e1161010f5780639ab24eb0116100a2578063c87b56dd11610071578063c87b56dd14610416578063d204c45e14610429578063e985e9c51461043c578063f2fde38b1461047857600080fd5b80639ab24eb0146103ca578063a22cb465146103dd578063b88d4fde146103f0578063c3cda5201461040357600080fd5b80638456cb59116100de5780638456cb59146103915780638da5cb5b146103995780638e539e8c146103af57806395d89b41146103c257600080fd5b80636352211e1461035057806370a0823114610363578063715018a6146103765780637ecebe001461037e57600080fd5b80633a46b1a8116101875780634f6ccce7116101565780634f6ccce7146102f3578063587cde1e146103065780635c19a95c146103325780635c975abb1461034557600080fd5b80633a46b1a8146102b25780633f4ba83a146102c557806342842e0e146102cd57806342966c68146102e057600080fd5b806318160ddd116101c357806318160ddd1461027257806323b872dd146102845780632f745c59146102975780633644e515146102aa57600080fd5b806301ffc9a7146101f557806306fdde031461021d578063081812fc14610232578063095ea7b31461025d575b600080fd5b610208610203366004612914565b61048b565b60405190151581526020015b60405180910390f35b61022561049c565b6040516102149190612989565b61024561024036600461299c565b61052e565b6040516001600160a01b039091168152602001610214565b61027061026b3660046129d1565b6105bb565b005b6008545b604051908152602001610214565b6102706102923660046129fb565b6106d0565b6102766102a53660046129d1565b610702565b610276610798565b6102766102c03660046129d1565b6107a7565b6102706107d0565b6102706102db3660046129fb565b61080a565b6102706102ee36600461299c565b610825565b61027661030136600461299c565b61089f565b610245610314366004612a37565b6001600160a01b039081166000908152600c60205260409020541690565b610270610340366004612a37565b610932565b600b5460ff16610208565b61024561035e36600461299c565b610941565b610276610371366004612a37565b6109b8565b610270610a3e565b61027661038c366004612a37565b610a78565b610270610a96565b600b5461010090046001600160a01b0316610245565b6102766103bd36600461299c565b610ace565b610225610b2a565b6102766103d8366004612a37565b610b39565b6102706103eb366004612a52565b610b5a565b6102706103fe366004612b1a565b610b65565b610270610411366004612b96565b610b9d565b61022561042436600461299c565b610cca565b610270610437366004612bf6565b610cd5565b61020861044a366004612c58565b6001600160a01b03918216600090815260056020908152604080832093909416825291909152205460ff1690565b610270610486366004612a37565b610d34565b600061049682610dd2565b92915050565b6060600080546104ab90612c8b565b80601f01602080910402602001604051908101604052809291908181526020018280546104d790612c8b565b80156105245780601f106104f957610100808354040283529160200191610524565b820191906000526020600020905b81548152906001019060200180831161050757829003601f168201915b5050505050905090565b600061053982610df7565b61059f5760405162461bcd60e51b815260206004820152602c60248201527f4552433732313a20617070726f76656420717565727920666f72206e6f6e657860448201526b34b9ba32b73a103a37b5b2b760a11b60648201526084015b60405180910390fd5b506000908152600460205260409020546001600160a01b031690565b60006105c682610941565b9050806001600160a01b0316836001600160a01b0316036106335760405162461bcd60e51b815260206004820152602160248201527f4552433732313a20617070726f76616c20746f2063757272656e74206f776e656044820152603960f91b6064820152608401610596565b336001600160a01b038216148061064f575061064f813361044a565b6106c15760405162461bcd60e51b815260206004820152603860248201527f4552433732313a20617070726f76652063616c6c6572206973206e6f74206f7760448201527f6e6572206e6f7220617070726f76656420666f7220616c6c00000000000000006064820152608401610596565b6106cb8383610e14565b505050565b6106db335b82610e82565b6106f75760405162461bcd60e51b815260040161059690612cbf565b6106cb838383610f6c565b600061070d836109b8565b821061076f5760405162461bcd60e51b815260206004820152602b60248201527f455243373231456e756d657261626c653a206f776e657220696e646578206f7560448201526a74206f6620626f756e647360a81b6064820152608401610596565b506001600160a01b03919091166000908152600660209081526040808320938352929052205490565b60006107a2611119565b905090565b6001600160a01b0382166000908152600d602052604081206107c99083611240565b9392505050565b600b546001600160a01b036101009091041633146108005760405162461bcd60e51b815260040161059690612d10565b61080861134f565b565b6106cb83838360405180602001604052806000815250610b65565b61082e336106d5565b6108935760405162461bcd60e51b815260206004820152603060248201527f4552433732314275726e61626c653a2063616c6c6572206973206e6f74206f7760448201526f1b995c881b9bdc88185c1c1c9bdd995960821b6064820152608401610596565b61089c816113e2565b50565b60006108aa60085490565b821061090d5760405162461bcd60e51b815260206004820152602c60248201527f455243373231456e756d657261626c653a20676c6f62616c20696e646578206f60448201526b7574206f6620626f756e647360a01b6064820152608401610596565b6008828154811061092057610920612d45565b90600052602060002001549050919050565b3361093d81836113eb565b5050565b6000818152600260205260408120546001600160a01b0316806104965760405162461bcd60e51b815260206004820152602960248201527f4552433732313a206f776e657220717565727920666f72206e6f6e657869737460448201526832b73a103a37b5b2b760b91b6064820152608401610596565b60006001600160a01b038216610a225760405162461bcd60e51b815260206004820152602960248201527f4552433732313a2061646472657373207a65726f206973206e6f7420612076616044820152683634b21037bbb732b960b91b6064820152608401610596565b506001600160a01b031660009081526003602052604090205490565b600b546001600160a01b03610100909104163314610a6e5760405162461bcd60e51b815260040161059690612d10565b610808600061145d565b6001600160a01b0381166000908152600f6020526040812054610496565b600b546001600160a01b03610100909104163314610ac65760405162461bcd60e51b815260040161059690612d10565b6108086114b7565b6000438210610b1f5760405162461bcd60e51b815260206004820152601a60248201527f566f7465733a20626c6f636b206e6f7420796574206d696e65640000000000006044820152606401610596565b610496600e83611240565b6060600180546104ab90612c8b565b6001600160a01b0381166000908152600d6020526040812061049690611532565b61093d33838361158e565b610b6f3383610e82565b610b8b5760405162461bcd60e51b815260040161059690612cbf565b610b978484848461165c565b50505050565b83421115610bed5760405162461bcd60e51b815260206004820152601860248201527f566f7465733a207369676e6174757265206578706972656400000000000000006044820152606401610596565b604080517fe48329057bfd03d55e49b547132e39cffd9c1820ad7b9d4c5307691425d15adf60208201526001600160a01b038816918101919091526060810186905260808101859052600090610c6790610c5f9060a0016040516020818303038152906040528051906020012061168f565b8585856116dd565b9050610c7281611705565b8614610cb75760405162461bcd60e51b8152602060048201526014602482015273566f7465733a20696e76616c6964206e6f6e636560601b6044820152606401610596565b610cc181886113eb565b50505050505050565b60606104968261172d565b600b546001600160a01b03610100909104163314610d055760405162461bcd60e51b815260040161059690612d10565b6000610d1060105490565b9050610d20601080546001019055565b610d2a838261189b565b6106cb81836118b5565b600b546001600160a01b03610100909104163314610d645760405162461bcd60e51b815260040161059690612d10565b6001600160a01b038116610dc95760405162461bcd60e51b815260206004820152602660248201527f4f776e61626c653a206e6577206f776e657220697320746865207a65726f206160448201526564647265737360d01b6064820152608401610596565b61089c8161145d565b60006001600160e01b0319821663780e9d6360e01b1480610496575061049682611940565b6000908152600260205260409020546001600160a01b0316151590565b600081815260046020526040902080546001600160a01b0319166001600160a01b0384169081179091558190610e4982610941565b6001600160a01b03167f8c5be1e5ebec7d5bd14f71427d1e84f3dd0314c0f7b2291e5b200ac8c7c3b92560405160405180910390a45050565b6000610e8d82610df7565b610eee5760405162461bcd60e51b815260206004820152602c60248201527f4552433732313a206f70657261746f7220717565727920666f72206e6f6e657860448201526b34b9ba32b73a103a37b5b2b760a11b6064820152608401610596565b6000610ef983610941565b9050806001600160a01b0316846001600160a01b03161480610f4057506001600160a01b0380821660009081526005602090815260408083209388168352929052205460ff165b80610f645750836001600160a01b0316610f598461052e565b6001600160a01b0316145b949350505050565b826001600160a01b0316610f7f82610941565b6001600160a01b031614610fe35760405162461bcd60e51b815260206004820152602560248201527f4552433732313a207472616e736665722066726f6d20696e636f72726563742060448201526437bbb732b960d91b6064820152608401610596565b6001600160a01b0382166110455760405162461bcd60e51b8152602060048201526024808201527f4552433732313a207472616e7366657220746f20746865207a65726f206164646044820152637265737360e01b6064820152608401610596565b611050838383611990565b61105b600082610e14565b6001600160a01b0383166000908152600360205260408120805460019290611084908490612d71565b90915550506001600160a01b03821660009081526003602052604081208054600192906110b2908490612d88565b909155505060008181526002602052604080822080546001600160a01b0319166001600160a01b0386811691821790925591518493918716917fddf252ad1be2c89b69c2b068fc378daa952ba7f163c4a11628f55a4df523b3ef91a46106cb8383836119e1565b6000306001600160a01b037f00000000000000000000000000000000000000000000000000000000000000001614801561117257507f000000000000000000000000000000000000000000000000000000000000000046145b1561119c57507f000000000000000000000000000000000000000000000000000000000000000090565b50604080517f00000000000000000000000000000000000000000000000000000000000000006020808301919091527f0000000000000000000000000000000000000000000000000000000000000000828401527f000000000000000000000000000000000000000000000000000000000000000060608301524660808301523060a0808401919091528351808403909101815260c0909201909252805191012090565b60004382106112915760405162461bcd60e51b815260206004820181905260248201527f436865636b706f696e74733a20626c6f636b206e6f7420796574206d696e65646044820152606401610596565b825460005b818110156112f65760006112aa82846119ec565b9050848660000182815481106112c2576112c2612d45565b60009182526020909120015463ffffffff1611156112e2578092506112f0565b6112ed816001612d88565b91505b50611296565b811561133a5784611308600184612d71565b8154811061131857611318612d45565b60009182526020909120015464010000000090046001600160e01b031661133d565b60005b6001600160e01b031695945050505050565b600b5460ff166113985760405162461bcd60e51b815260206004820152601460248201527314185d5cd8589b194e881b9bdd081c185d5cd95960621b6044820152606401610596565b600b805460ff191690557f5db9ee0a495bf2e6ff9c91a7834c1ba4fdd244a5e8aa4e537bd38aeae4b073aa335b6040516001600160a01b03909116815260200160405180910390a1565b61089c81611a07565b6001600160a01b038281166000818152600c602052604080822080548686166001600160a01b0319821681179092559151919094169392849290917f3134e8a2e6d97e929a7e54011ea5485d7d196dd5f0ba4d4ef95803e8e3fc257f9190a46106cb818361145886611a47565b611a52565b600b80546001600160a01b03838116610100818102610100600160a81b031985161790945560405193909204169182907f8be0079c531659141344cd1fd0a4f28419497f9722a3daafe3b4186f6b6457e090600090a35050565b600b5460ff16156114fd5760405162461bcd60e51b815260206004820152601060248201526f14185d5cd8589b194e881c185d5cd95960821b6044820152606401610596565b600b805460ff191660011790557f62e78cea01bee320cd4e420270b5ea74000d11b0c9f74754ebdbfc544b05a2586113c53390565b8054600090801561157b5782611549600183612d71565b8154811061155957611559612d45565b60009182526020909120015464010000000090046001600160e01b031661157e565b60005b6001600160e01b03169392505050565b816001600160a01b0316836001600160a01b0316036115ef5760405162461bcd60e51b815260206004820152601960248201527f4552433732313a20617070726f766520746f2063616c6c6572000000000000006044820152606401610596565b6001600160a01b03838116600081815260056020908152604080832094871680845294825291829020805460ff191686151590811790915591519182527f17307eab39ab6107e8899845ad3d59bd9653f200f220920489ca2b5937696c31910160405180910390a3505050565b611667848484610f6c565b61167384848484611b8f565b610b975760405162461bcd60e51b815260040161059690612da0565b600061049661169c611119565b8360405161190160f01b6020820152602281018390526042810182905260009060620160405160208183030381529060405280519060200120905092915050565b60008060006116ee87878787611c8d565b915091506116fb81611d7a565b5095945050505050565b6001600160a01b0381166000908152600f602052604090208054600181018255905b50919050565b606061173882610df7565b61179e5760405162461bcd60e51b815260206004820152603160248201527f45524337323155524953746f726167653a2055524920717565727920666f72206044820152703737b732bc34b9ba32b73a103a37b5b2b760791b6064820152608401610596565b6000828152600a6020526040812080546117b790612c8b565b80601f01602080910402602001604051908101604052809291908181526020018280546117e390612c8b565b80156118305780601f1061180557610100808354040283529160200191611830565b820191906000526020600020905b81548152906001019060200180831161181357829003601f168201915b50505050509050600061184e60408051602081019091526000815290565b90508051600003611860575092915050565b81511561189257808260405160200161187a929190612df2565b60405160208183030381529060405292505050919050565b610f6484611f30565b61093d828260405180602001604052806000815250612007565b6118be82610df7565b6119215760405162461bcd60e51b815260206004820152602e60248201527f45524337323155524953746f726167653a2055524920736574206f66206e6f6e60448201526d32bc34b9ba32b73a103a37b5b2b760911b6064820152608401610596565b6000828152600a6020908152604090912082516106cb92840190612833565b60006001600160e01b031982166380ac58cd60e01b148061197157506001600160e01b03198216635b5e139f60e01b145b8061049657506301ffc9a760e01b6001600160e01b0319831614610496565b600b5460ff16156119d65760405162461bcd60e51b815260206004820152601060248201526f14185d5cd8589b194e881c185d5cd95960821b6044820152606401610596565b6106cb83838361203a565b6106cb8383836120f2565b60006119fb6002848418612e37565b6107c990848416612d88565b611a10816120fe565b6000818152600a602052604090208054611a2990612c8b565b15905061089c576000818152600a6020526040812061089c916128b3565b6000610496826109b8565b816001600160a01b0316836001600160a01b031614158015611a745750600081115b156106cb576001600160a01b03831615611b02576001600160a01b0383166000908152600d602052604081208190611aaf906121ad856121b9565b91509150846001600160a01b03167fdec2bacdd2f05b59de34da9b523dff8be42e5e38e818c82fdb0bae774387a7248383604051611af7929190918252602082015260400190565b60405180910390a250505b6001600160a01b038216156106cb576001600160a01b0382166000908152600d602052604081208190611b38906121e7856121b9565b91509150836001600160a01b03167fdec2bacdd2f05b59de34da9b523dff8be42e5e38e818c82fdb0bae774387a7248383604051611b80929190918252602082015260400190565b60405180910390a25050505050565b60006001600160a01b0384163b15611c8557604051630a85bd0160e11b81526001600160a01b0385169063150b7a0290611bd3903390899088908890600401612e4b565b6020604051808303816000875af1925050508015611c0e575060408051601f3d908101601f19168201909252611c0b91810190612e88565b60015b611c6b573d808015611c3c576040519150601f19603f3d011682016040523d82523d6000602084013e611c41565b606091505b508051600003611c635760405162461bcd60e51b815260040161059690612da0565b805181602001fd5b6001600160e01b031916630a85bd0160e11b149050610f64565b506001610f64565b6000807f7fffffffffffffffffffffffffffffff5d576e7357a4501ddfe92f46681b20a0831115611cc45750600090506003611d71565b8460ff16601b14158015611cdc57508460ff16601c14155b15611ced5750600090506004611d71565b6040805160008082526020820180845289905260ff881692820192909252606081018690526080810185905260019060a0016020604051602081039080840390855afa158015611d41573d6000803e3d6000fd5b5050604051601f1901519150506001600160a01b038116611d6a57600060019250925050611d71565b9150600090505b94509492505050565b6000816004811115611d8e57611d8e612ea5565b03611d965750565b6001816004811115611daa57611daa612ea5565b03611df75760405162461bcd60e51b815260206004820152601860248201527f45434453413a20696e76616c6964207369676e617475726500000000000000006044820152606401610596565b6002816004811115611e0b57611e0b612ea5565b03611e585760405162461bcd60e51b815260206004820152601f60248201527f45434453413a20696e76616c6964207369676e6174757265206c656e677468006044820152606401610596565b6003816004811115611e6c57611e6c612ea5565b03611ec45760405162461bcd60e51b815260206004820152602260248201527f45434453413a20696e76616c6964207369676e6174757265202773272076616c604482015261756560f01b6064820152608401610596565b6004816004811115611ed857611ed8612ea5565b0361089c5760405162461bcd60e51b815260206004820152602260248201527f45434453413a20696e76616c6964207369676e6174757265202776272076616c604482015261756560f01b6064820152608401610596565b6060611f3b82610df7565b611f9f5760405162461bcd60e51b815260206004820152602f60248201527f4552433732314d657461646174613a2055524920717565727920666f72206e6f60448201526e3732bc34b9ba32b73a103a37b5b2b760891b6064820152608401610596565b6000611fb660408051602081019091526000815290565b90506000815111611fd657604051806020016040528060008152506107c9565b80611fe0846121f3565b604051602001611ff1929190612df2565b6040516020818303038152906040529392505050565b61201183836122f4565b61201e6000848484611b8f565b6106cb5760405162461bcd60e51b815260040161059690612da0565b6001600160a01b0383166120955761209081600880546000838152600960205260408120829055600182018355919091527ff3f7a9fe364faab93b216da50a3214154f22a0a2b415b23a84c8169e8b636ee30155565b6120b8565b816001600160a01b0316836001600160a01b0316146120b8576120b8838261243b565b6001600160a01b0382166120cf576106cb816124d8565b826001600160a01b0316826001600160a01b0316146106cb576106cb8282612587565b6106cb838360016125cb565b600061210982610941565b905061211781600084611990565b612122600083610e14565b6001600160a01b038116600090815260036020526040812080546001929061214b908490612d71565b909155505060008281526002602052604080822080546001600160a01b0319169055518391906001600160a01b038416907fddf252ad1be2c89b69c2b068fc378daa952ba7f163c4a11628f55a4df523b3ef908390a461093d816000846119e1565b60006107c98284612d71565b6000806121db856121d66121cc88611532565b868863ffffffff16565b61263b565b91509150935093915050565b60006107c98284612d88565b60608160000361221a5750506040805180820190915260018152600360fc1b602082015290565b8160005b8115612244578061222e81612ebb565b915061223d9050600a83612e37565b915061221e565b60008167ffffffffffffffff81111561225f5761225f612a8e565b6040519080825280601f01601f191660200182016040528015612289576020820181803683370190505b5090505b8415610f645761229e600183612d71565b91506122ab600a86612ed4565b6122b6906030612d88565b60f81b8183815181106122cb576122cb612d45565b60200101906001600160f81b031916908160001a9053506122ed600a86612e37565b945061228d565b6001600160a01b03821661234a5760405162461bcd60e51b815260206004820181905260248201527f4552433732313a206d696e7420746f20746865207a65726f20616464726573736044820152606401610596565b61235381610df7565b156123a05760405162461bcd60e51b815260206004820152601c60248201527f4552433732313a20746f6b656e20616c7265616479206d696e746564000000006044820152606401610596565b6123ac60008383611990565b6001600160a01b03821660009081526003602052604081208054600192906123d5908490612d88565b909155505060008181526002602052604080822080546001600160a01b0319166001600160a01b03861690811790915590518392907fddf252ad1be2c89b69c2b068fc378daa952ba7f163c4a11628f55a4df523b3ef908290a461093d600083836119e1565b60006001612448846109b8565b6124529190612d71565b6000838152600760205260409020549091508082146124a5576001600160a01b03841660009081526006602090815260408083208584528252808320548484528184208190558352600790915290208190555b5060009182526007602090815260408084208490556001600160a01b039094168352600681528383209183525290812055565b6008546000906124ea90600190612d71565b6000838152600960205260408120546008805493945090928490811061251257612512612d45565b90600052602060002001549050806008838154811061253357612533612d45565b600091825260208083209091019290925582815260099091526040808220849055858252812055600880548061256b5761256b612ee8565b6001900381819060005260206000200160009055905550505050565b6000612592836109b8565b6001600160a01b039093166000908152600660209081526040808320868452825280832085905593825260079052919091209190915550565b6001600160a01b0383166125ea576125e7600e6121e7836121b9565b50505b6001600160a01b03821661260957612606600e6121ad836121b9565b50505b6001600160a01b038381166000908152600c60205260408082205485841683529120546106cb92918216911683611a52565b815460009081908161264c86611532565b905060008211801561268a57504386612666600185612d71565b8154811061267657612676612d45565b60009182526020909120015463ffffffff16145b156126ea5761269885612761565b866126a4600185612d71565b815481106126b4576126b4612d45565b9060005260206000200160000160046101000a8154816001600160e01b0302191690836001600160e01b03160217905550612758565b856000016040518060400160405280612702436127ce565b63ffffffff16815260200161271688612761565b6001600160e01b0390811690915282546001810184556000938452602093849020835194909301519091166401000000000263ffffffff909316929092179101555b95939450505050565b60006001600160e01b038211156127ca5760405162461bcd60e51b815260206004820152602760248201527f53616665436173743a2076616c756520646f65736e27742066697420696e20326044820152663234206269747360c81b6064820152608401610596565b5090565b600063ffffffff8211156127ca5760405162461bcd60e51b815260206004820152602660248201527f53616665436173743a2076616c756520646f65736e27742066697420696e203360448201526532206269747360d01b6064820152608401610596565b82805461283f90612c8b565b90600052602060002090601f01602090048101928261286157600085556128a7565b82601f1061287a57805160ff19168380011785556128a7565b828001600101855582156128a7579182015b828111156128a757825182559160200191906001019061288c565b506127ca9291506128e9565b5080546128bf90612c8b565b6000825580601f106128cf575050565b601f01602090049060005260206000209081019061089c91905b5b808211156127ca57600081556001016128ea565b6001600160e01b03198116811461089c57600080fd5b60006020828403121561292657600080fd5b81356107c9816128fe565b60005b8381101561294c578181015183820152602001612934565b83811115610b975750506000910152565b60008151808452612975816020860160208601612931565b601f01601f19169290920160200192915050565b6020815260006107c9602083018461295d565b6000602082840312156129ae57600080fd5b5035919050565b80356001600160a01b03811681146129cc57600080fd5b919050565b600080604083850312156129e457600080fd5b6129ed836129b5565b946020939093013593505050565b600080600060608486031215612a1057600080fd5b612a19846129b5565b9250612a27602085016129b5565b9150604084013590509250925092565b600060208284031215612a4957600080fd5b6107c9826129b5565b60008060408385031215612a6557600080fd5b612a6e836129b5565b915060208301358015158114612a8357600080fd5b809150509250929050565b634e487b7160e01b600052604160045260246000fd5b600067ffffffffffffffff80841115612abf57612abf612a8e565b604051601f8501601f19908116603f01168101908282118183101715612ae757612ae7612a8e565b81604052809350858152868686011115612b0057600080fd5b858560208301376000602087830101525050509392505050565b60008060008060808587031215612b3057600080fd5b612b39856129b5565b9350612b47602086016129b5565b925060408501359150606085013567ffffffffffffffff811115612b6a57600080fd5b8501601f81018713612b7b57600080fd5b612b8a87823560208401612aa4565b91505092959194509250565b60008060008060008060c08789031215612baf57600080fd5b612bb8876129b5565b95506020870135945060408701359350606087013560ff81168114612bdc57600080fd5b9598949750929560808101359460a0909101359350915050565b60008060408385031215612c0957600080fd5b612c12836129b5565b9150602083013567ffffffffffffffff811115612c2e57600080fd5b8301601f81018513612c3f57600080fd5b612c4e85823560208401612aa4565b9150509250929050565b60008060408385031215612c6b57600080fd5b612c74836129b5565b9150612c82602084016129b5565b90509250929050565b600181811c90821680612c9f57607f821691505b60208210810361172757634e487b7160e01b600052602260045260246000fd5b60208082526031908201527f4552433732313a207472616e736665722063616c6c6572206973206e6f74206f6040820152701ddb995c881b9bdc88185c1c1c9bdd9959607a1b606082015260800190565b6020808252818101527f4f776e61626c653a2063616c6c6572206973206e6f7420746865206f776e6572604082015260600190565b634e487b7160e01b600052603260045260246000fd5b634e487b7160e01b600052601160045260246000fd5b600082821015612d8357612d83612d5b565b500390565b60008219821115612d9b57612d9b612d5b565b500190565b60208082526032908201527f4552433732313a207472616e7366657220746f206e6f6e20455243373231526560408201527131b2b4bb32b91034b6b83632b6b2b73a32b960711b606082015260800190565b60008351612e04818460208801612931565b835190830190612e18818360208801612931565b01949350505050565b634e487b7160e01b600052601260045260246000fd5b600082612e4657612e46612e21565b500490565b6001600160a01b0385811682528416602082015260408101839052608060608201819052600090612e7e9083018461295d565b9695505050505050565b600060208284031215612e9a57600080fd5b81516107c9816128fe565b634e487b7160e01b600052602160045260246000fd5b600060018201612ecd57612ecd612d5b565b5060010190565b600082612ee357612ee3612e21565b500690565b634e487b7160e01b600052603160045260246000fdfea164736f6c634300080d000a",
    "linkReferences": {}
  }
}